:1000000009C021C020C01FC01EC01DC01CC01BC015
:100010001AC019C011241FBECFE9CDBF10E0A0E661
:10002000B0E0ECEFF2E002C005900D92AA36B10705
:10003000D9F720E0AAE6B0E001C01D92AC36B207C5
:10004000E1F737D059C1DCCF20E030E00FC098B3E2
:100050008EE1892788BB4FEF8DEE92E041508040C2
:100060009040E1F700C000002F5F3F4F2530310581
:1000700074F3089580916A0090916B0001969093BB
:100080006B0080936A000895CF93DF93C0E0D0E0C7
:1000900009C0F0DFC80FD91F8FE599E00197F1F78C
:1000A00000C00000B09BF5CFCE01C4D0DF91CF914E
:1000B00008958EE187BB88B3816088BB80E090E0C3
:1000C0000FC0FC01EC59FF4F208128BB2FEF3BED07
:1000D00045E0215030404040E1F700C0000001966B
:1000E0008630910574F384E090E00FC0FC01EC5978
:1000F000FF4F208128BB2FEF3BED45E021503040E2
:100100004040E1F700C00000019799237CF718BA3E
:10011000B09914C0B9DF8FEB9DE50197F1F700C0EE
:100120000000B09BFECF90DF81D066E070E00DD084
:10013000FC01FF27EC59FF4F808188BB8FEB9DE5C9
:100140000197F1F700C00000E3CF97FB072E16F4EC
:10015000009406D077FD08D00BD007FC05D03EF404
:10016000909581959F4F0895709561957F4F089563
:10017000AA1BBB1B51E107C0AA1FBB1FA617B707CD
:1001800010F0A61BB70B881F991F5A95A9F78095E9
:100190009095BC01CD0108958F929F92AF92BF922E
:1001A000CF92DF92EF92FF92CF93DF93EC016881C1
:1001B00079818A819B81611571058105910521F401
:1001C00064E279ED8BE597E02DE133EF41E050E01B
:1001D00055D049015A0127EA31E440E050E035D0DA
:1001E0006B017C012CEE34EF4FEF5FEFC501B401E2
:1001F0002CD0DC01CB018C0D9D1DAE1DBF1DB7FFAA
:1002000003C00197A109B04888839983AA83BB835F
:100210009F77DF91CF91FF90EF90DF90CF90BF90CD
:10022000AF909F908F900895B7DF089580E690E09B
:10023000B3DF0895A0E0B0E0809360009093610088
:10024000A0936200B09363000895EE27FF27AA27CA
:10025000BB2708C0A20FB31FE41FF51F220F331FD7
:10026000441F551F969587957795679598F370402D
:10027000A9F7009799F7BD01CF010895052E97FBC7
:1002800016F400940FD057FD05D014D007FC02D00F
:1002900046F408C050954095309521953F4F4F4FFB
:1002A0005F4F089590958095709561957F4F8F4F22
:1002B0009F4F0895A1E21A2EAA1BBB1BFD010DC082
:1002C000AA1FBB1FEE1FFF1FA217B307E407F50706
:1002D00020F0A21BB30BE40BF50B661F771F881FE2
:1002E000991F1A9469F760957095809590959B0178
:0C02F000AC01BD01CF010895F894FFCFD0
:0A02FC00010000001008180A1A0E95
:00000001FF
